{
  "_format": "hh-sol-artifact-1",
  "contractName": "Lottery",
  "sourceName": "contracts/Lottery.sol",
  "abi": [
    {
      "inputs": [],
      "stateMutability": "nonpayable",
      "type": "constructor"
    },
    {
      "anonymous": false,
      "inputs": [
        {
          "indexed": true,
          "internalType": "address",
          "name": "player",
          "type": "address"
        }
      ],
      "name": "LotteryEntered",
      "type": "event"
    },
    {
      "anonymous": false,
      "inputs": [
        {
          "indexed": true,
          "internalType": "address",
          "name": "winner",
          "type": "address"
        },
        {
          "indexed": false,
          "internalType": "uint256",
          "name": "amount",
          "type": "uint256"
        }
      ],
      "name": "PrizeClaimed",
      "type": "event"
    },
    {
      "inputs": [],
      "name": "claimPrize",
      "outputs": [],
      "stateMutability": "nonpayable",
      "type": "function"
    },
    {
      "inputs": [],
      "name": "claimed",
      "outputs": [
        {
          "internalType": "bool",
          "name": "",
          "type": "bool"
        }
      ],
      "stateMutability": "view",
      "type": "function"
    },
    {
      "inputs": [],
      "name": "enter",
      "outputs": [],
      "stateMutability": "payable",
      "type": "function"
    },
    {
      "inputs": [],
      "name": "getOwner",
      "outputs": [
        {
          "internalType": "address",
          "name": "",
          "type": "address"
        }
      ],
      "stateMutability": "view",
      "type": "function"
    },
    {
      "inputs": [],
      "name": "getPlayers",
      "outputs": [
        {
          "internalType": "address payable[]",
          "name": "",
          "type": "address[]"
        }
      ],
      "stateMutability": "view",
      "type": "function"
    },
    {
      "inputs": [],
      "name": "getWinner",
      "outputs": [
        {
          "internalType": "address",
          "name": "",
          "type": "address"
        }
      ],
      "stateMutability": "view",
      "type": "function"
    },
    {
      "inputs": [],
      "name": "isClaimed",
      "outputs": [
        {
          "internalType": "bool",
          "name": "",
          "type": "bool"
        }
      ],
      "stateMutability": "view",
      "type": "function"
    },
    {
      "inputs": [],
      "name": "isComplete",
      "outputs": [
        {
          "internalType": "bool",
          "name": "",
          "type": "bool"
        }
      ],
      "stateMutability": "view",
      "type": "function"
    },
    {
      "inputs": [],
      "name": "owner",
      "outputs": [
        {
          "internalType": "address",
          "name": "",
          "type": "address"
        }
      ],
      "stateMutability": "view",
      "type": "function"
    },
    {
      "inputs": [
        {
          "internalType": "uint256",
          "name": "",
          "type": "uint256"
        }
      ],
      "name": "participants",
      "outputs": [
        {
          "internalType": "address payable",
          "name": "",
          "type": "address"
        }
      ],
      "stateMutability": "view",
      "type": "function"
    },
    {
      "inputs": [],
      "name": "pickWinner",
      "outputs": [],
      "stateMutability": "nonpayable",
      "type": "function"
    },
    {
      "inputs": [],
      "name": "status",
      "outputs": [
        {
          "internalType": "bool",
          "name": "",
          "type": "bool"
        }
      ],
      "stateMutability": "view",
      "type": "function"
    },
    {
      "inputs": [],
      "name": "ticketPrize",
      "outputs": [
        {
          "internalType": "uint256",
          "name": "",
          "type": "uint256"
        }
      ],
      "stateMutability": "view",
      "type": "function"
    }
  ],
  "bytecode": "0x608060405266038d7ea4c6800060035534801561001b57600080fd5b5033600160006101000a81548173ffffffffffffffffffffffffffffffffffffffff021916908373ffffffffffffffffffffffffffffffffffffffff1602179055506000600260146101000a81548160ff0219169083151502179055506000600260156101000a81548160ff021916908315150217905550610ec6806100a26000396000f3fe6080604052600436106100c25760003560e01c8063893d20e81161007f5780638e7ea5b2116100595780638e7ea5b214610234578063b2fa1c9e1461025f578063e834a8341461028a578063e97dcb62146102b5576100c2565b8063893d20e8146101b35780638b5b9ccc146101de5780638da5cb5b14610209576100c2565b806316ebd967146100c7578063200d2ed2146100f257806335c1d3491461011d57806357c9ca141461015a5780635d495aea1461018557806370740ac91461019c575b600080fd5b3480156100d357600080fd5b506100dc6102bf565b6040516100e9919061094f565b60405180910390f35b3480156100fe57600080fd5b506101076102c5565b6040516101149190610985565b60405180910390f35b34801561012957600080fd5b50610144600480360381019061013f91906109d1565b6102dc565b6040516101519190610a3f565b60405180910390f35b34801561016657600080fd5b5061016f61031b565b60405161017c9190610985565b60405180910390f35b34801561019157600080fd5b5061019a610332565b005b3480156101a857600080fd5b506101b161050b565b005b3480156101bf57600080fd5b506101c8610691565b6040516101d59190610a7b565b60405180910390f35b3480156101ea57600080fd5b506101f36106bb565b6040516102009190610b54565b60405180910390f35b34801561021557600080fd5b5061021e610749565b60405161022b9190610a7b565b60405180910390f35b34801561024057600080fd5b5061024961076f565b6040516102569190610a7b565b60405180910390f35b34801561026b57600080fd5b50610274610799565b6040516102819190610985565b60405180910390f35b34801561029657600080fd5b5061029f6107ac565b6040516102ac9190610985565b60405180910390f35b6102bd6107bf565b005b60035481565b6000600260149054906101000a900460ff16905090565b600081815481106102ec57600080fd5b906000526020600020016000915054906101000a900473ffffffffffffffffffffffffffffffffffffffff1681565b6000600260159054906101000a900460ff16905090565b600160009054906101000a900473ffffffffffffffffffffffffffffffffffffffff1673ffffffffffffffffffffffffffffffffffffffff163373ffffffffffffffffffffffffffffffffffffffff16146103c2576040517f08c379a00000000000000000000000000000000000000000000000000000000081526004016103b990610bd3565b60405180910390fd5b6000808054905011610409576040517f08c379a000000000000000000000000000000000000000000000000000000000815260040161040090610c3f565b60405180910390fd5b600260149054906101000a900460ff1615610459576040517f08c379a000000000000000000000000000000000000000000000000000000000815260040161045090610cab565b60405180910390fd5b600080805490506104686108fc565b6104729190610cfa565b8154811061048357610482610d2b565b5b9060005260206000200160009054906101000a900473ffffffffffffffffffffffffffffffffffffffff16600260006101000a81548173ffffffffffffffffffffffffffffffffffffffff021916908373ffffffffffffffffffffffffffffffffffffffff1602179055506001600260146101000a81548160ff021916908315150217905550565b600260009054906101000a900473ffffffffffffffffffffffffffffffffffffffff1673ffffffffffffffffffffffffffffffffffffffff163373ffffffffffffffffffffffffffffffffffffffff161461059b576040517f08c379a000000000000000000000000000000000000000000000000000000000815260040161059290610da6565b60405180910390fd5b600260009054906101000a900473ffffffffffffffffffffffffffffffffffffffff1673ffffffffffffffffffffffffffffffffffffffff166108fc479081150290604051600060405180830381858888f19350505050158015610603573d6000803e3d6000fd5b506001600260156101000a81548160ff021916908315150217905550600260009054906101000a900473ffffffffffffffffffffffffffffffffffffffff1673ffffffffffffffffffffffffffffffffffffffff167f95681e512bc0fe659e195e06c283eada494316f3d801213e48e7101af92bf77047604051610687919061094f565b60405180910390a2565b6000600160009054906101000a900473ffffffffffffffffffffffffffffffffffffffff16905090565b6060600080548060200260200160405190810160405280929190818152602001828054801561073f57602002820191906000526020600020905b8160009054906101000a900473ffffffffffffffffffffffffffffffffffffffff1673ffffffffffffffffffffffffffffffffffffffff16815260200190600101908083116106f5575b5050505050905090565b600160009054906101000a900473ffffffffffffffffffffffffffffffffffffffff1681565b6000600260009054906101000a900473ffffffffffffffffffffffffffffffffffffffff16905090565b600260149054906101000a900460ff1681565b600260159054906101000a900460ff1681565b600354341015610804576040517f08c379a00000000000000000000000000000000000000000000000000000000081526004016107fb90610e12565b60405180910390fd5b600260149054906101000a900460ff1615610854576040517f08c379a000000000000000000000000000000000000000000000000000000000815260040161084b90610cab565b60405180910390fd5b6000339080600181540180825580915050600190039060005260206000200160009091909190916101000a81548173ffffffffffffffffffffffffffffffffffffffff021916908373ffffffffffffffffffffffffffffffffffffffff1602179055503373ffffffffffffffffffffffffffffffffffffffff167f4c72b57c1ca715219cf2c7be9edc8a3ea19dfb9a76fb7a05e2a8062a027ee97060405160405180910390a2565b6000444260008054905060405160200161091893929190610e53565b6040516020818303038152906040528051906020012060001c905090565b6000819050919050565b61094981610936565b82525050565b60006020820190506109646000830184610940565b92915050565b60008115159050919050565b61097f8161096a565b82525050565b600060208201905061099a6000830184610976565b92915050565b600080fd5b6109ae81610936565b81146109b957600080fd5b50565b6000813590506109cb816109a5565b92915050565b6000602082840312156109e7576109e66109a0565b5b60006109f5848285016109bc565b91505092915050565b600073ffffffffffffffffffffffffffffffffffffffff82169050919050565b6000610a29826109fe565b9050919050565b610a3981610a1e565b82525050565b6000602082019050610a546000830184610a30565b92915050565b6000610a65826109fe565b9050919050565b610a7581610a5a565b82525050565b6000602082019050610a906000830184610a6c565b92915050565b600081519050919050565b600082825260208201905092915050565b6000819050602082019050919050565b610acb81610a1e565b82525050565b6000610add8383610ac2565b60208301905092915050565b6000602082019050919050565b6000610b0182610a96565b610b0b8185610aa1565b9350610b1683610ab2565b8060005b83811015610b47578151610b2e8882610ad1565b9750610b3983610ae9565b925050600181019050610b1a565b5085935050505092915050565b60006020820190508181036000830152610b6e8184610af6565b905092915050565b600082825260208201905092915050565b7f4f776e61626c653a2063616c6c6572206973206e6f7420746865206f776e6572600082015250565b6000610bbd602083610b76565b9150610bc882610b87565b602082019050919050565b60006020820190508181036000830152610bec81610bb0565b9050919050565b7f4e6f207061727469636970616e74732e00000000000000000000000000000000600082015250565b6000610c29601083610b76565b9150610c3482610bf3565b602082019050919050565b60006020820190508181036000830152610c5881610c1c565b9050919050565b7f4c6f74746572792068617320656e6465642e0000000000000000000000000000600082015250565b6000610c95601283610b76565b9150610ca082610c5f565b602082019050919050565b60006020820190508181036000830152610cc481610c88565b9050919050565b7f4e487b7100000000000000000000000000000000000000000000000000000000600052601260045260246000fd5b6000610d0582610936565b9150610d1083610936565b925082610d2057610d1f610ccb565b5b828206905092915050565b7f4e487b7100000000000000000000000000000000000000000000000000000000600052603260045260246000fd5b7f596f7520617265206e6f74207468652077696e6e65722e000000000000000000600082015250565b6000610d90601783610b76565b9150610d9b82610d5a565b602082019050919050565b60006020820190508181036000830152610dbf81610d83565b9050919050565b7f496e73756666696369656e742066756e64732e00000000000000000000000000600082015250565b6000610dfc601383610b76565b9150610e0782610dc6565b602082019050919050565b60006020820190508181036000830152610e2b81610def565b9050919050565b6000819050919050565b610e4d610e4882610936565b610e32565b82525050565b6000610e5f8286610e3c565b602082019150610e6f8285610e3c565b602082019150610e7f8284610e3c565b60208201915081905094935050505056fea2646970667358221220bc9f2d25ad5110d21a72d55a5cc0e3d2c0bd6d5da1833160c56c45d283acfd6b64736f6c63430008120033",
  "linkReferences": {},
  "deployedLinkReferences": {}
}